{
  "contractName": "GMToken",
  "abi": [
    {
      "constant": true,
      "inputs": [],
      "name": "hasToken",
      "outputs": [
        {
          "name": "",
          "type": "bool"
        }
      ],
      "payable": false,
      "stateMutability": "view",
      "type": "function"
    },
    {
      "constant": true,
      "inputs": [],
      "name": "getName",
      "outputs": [
        {
          "name": "",
          "type": "string"
        }
      ],
      "payable": false,
      "stateMutability": "view",
      "type": "function"
    },
    {
      "constant": true,
      "inputs": [],
      "name": "getIsValue",
      "outputs": [
        {
          "name": "",
          "type": "bool"
        }
      ],
      "payable": false,
      "stateMutability": "view",
      "type": "function"
    },
    {
      "constant": false,
      "inputs": [],
      "name": "deleteMyself",
      "outputs": [],
      "payable": false,
      "stateMutability": "nonpayable",
      "type": "function"
    },
    {
      "constant": false,
      "inputs": [
        {
          "name": "storageLocation",
          "type": "bytes"
        },
        {
          "name": "playerAddress",
          "type": "address"
        }
      ],
      "name": "addChronicle",
      "outputs": [],
      "payable": false,
      "stateMutability": "nonpayable",
      "type": "function"
    },
    {
      "constant": true,
      "inputs": [
        {
          "name": "player",
          "type": "address"
        },
        {
          "name": "chronicleNumber",
          "type": "uint256"
        }
      ],
      "name": "getChronicleForPlayerAt",
      "outputs": [
        {
          "name": "",
          "type": "bytes"
        }
      ],
      "payable": false,
      "stateMutability": "view",
      "type": "function"
    },
    {
      "constant": true,
      "inputs": [],
      "name": "getID",
      "outputs": [
        {
          "name": "",
          "type": "uint256"
        }
      ],
      "payable": false,
      "stateMutability": "view",
      "type": "function"
    },
    {
      "constant": true,
      "inputs": [
        {
          "name": "player",
          "type": "address"
        }
      ],
      "name": "getNumChronicles",
      "outputs": [
        {
          "name": "",
          "type": "uint256"
        }
      ],
      "payable": false,
      "stateMutability": "view",
      "type": "function"
    },
    {
      "constant": false,
      "inputs": [
        {
          "name": "name",
          "type": "string"
        },
        {
          "name": "id",
          "type": "uint256"
        }
      ],
      "name": "newGM",
      "outputs": [],
      "payable": false,
      "stateMutability": "nonpayable",
      "type": "function"
    },
    {
      "anonymous": false,
      "inputs": [
        {
          "indexed": true,
          "name": "_from",
          "type": "address"
        },
        {
          "indexed": false,
          "name": "_id",
          "type": "uint256"
        },
        {
          "indexed": false,
          "name": "_name",
          "type": "string"
        }
      ],
      "name": "GMAdded",
      "type": "event"
    }
  ],
  "bytecode": "0x6060604052341561000f57600080fd5b61088d8061001e6000396000f300606060405236156100965763ffffffff7c0100000000000000000000000000000000000000000000000000000000600035041663122c51ab811461009b57806317d7de7c146100c25780633c3c069f1461014c5780635b566c361461015f5780636b59f8671461017457806394c77b3e146101d0578063ab9dbd07146101f2578063b0e7d5a914610217578063ccdab66b14610236575b600080fd5b34156100a657600080fd5b6100ae610289565b604051901515815260200160405180910390f35b34156100cd57600080fd5b6100d56102af565b60405160208082528190810183818151815260200191508051906020019080838360005b838110156101115780820151838201526020016100f9565b50505050905090810190601f16801561013e5780820380516001836020036101000a031916815260200191505b509250505060405180910390f35b341561015757600080fd5b6100ae610395565b341561016a57600080fd5b6101726103e0565b005b341561017f57600080fd5b61017260046024813581810190830135806020601f8201819004810201604051908101604052818152929190602084018383808284375094965050509235600160a060020a0316925061045c915050565b34156101db57600080fd5b6100d5600160a060020a03600435166024356104bc565b34156101fd57600080fd5b6102056105a8565b60405190815260200160405180910390f35b341561022257600080fd5b610205600160a060020a03600435166105f0565b341561024157600080fd5b61017260046024813581810190830135806020601f82018190048102016040519081016040528181529291906020840183838082843750949650509335935061060b92505050565b600160a060020a0333166000908152602081905260409020600281015460ff16905b5090565b6102b7610725565b60006102c1610289565b15156102cc57600080fd5b60008033600160a060020a0316600160a060020a031681526020019081526020016000209050806000018054600181600116156101000203166002900480601f01602080910402602001604051908101604052809291908181526020018280546001816001161561010002031660029004801561038a5780601f1061035f5761010080835404028352916020019161038a565b820191906000526020600020905b81548152906001019060200180831161036d57829003601f168201915b505050505091505090565b6000806103a0610289565b15156103ab57600080fd5b50600160a060020a0333166000908152602081905260409020600181015415156103d457600080fd5b6002015460ff16919050565b6060604051908101604052806020604051908101604090815260008083529183526020808401839052928101829052600160a060020a03331682529181905220815181908051610434929160200190610737565b50602082015181600101556040820151600291909101805460ff191691151591909117905550565b610464610289565b151561046f57600080fd5b600160a060020a038116600090815260016020819052604090912080549091810161049a83826107b1565b60009283526020909220018380516104b6929160200190610737565b50505050565b6104c4610725565b6104cd836105f0565b82106104d857600080fd5b600160a060020a03831660009081526001602052604090208054839081106104fc57fe5b90600052602060002090018054600181600116156101000203166002900480601f01602080910402602001604051908101604052809291908181526020018280546001816001161561010002031660029004801561059b5780601f106105705761010080835404028352916020019161059b565b820191906000526020600020905b81548152906001019060200180831161057e57829003601f168201915b5050505050905092915050565b6000806105b3610289565b15156105be57600080fd5b50600160a060020a0333166000908152602081905260409020600181015415156105e757600080fd5b60010154919050565b600160a060020a031660009081526001602052604090205490565b606060405190810160409081528382526020808301849052600182840152600160a060020a03331660009081529081905220815181908051610651929160200190610737565b50602082015181600101556040820151600291909101805460ff19169115159190911790555033600160a060020a03167fa8965d0d3099fb984d02c5f7ed4e2965dfc3485b8b27ce2616fd92c1751816fa828460405182815260406020820181815290820183818151815260200191508051906020019080838360005b838110156106e65780820151838201526020016106ce565b50505050905090810190601f1680156107135780820380516001836020036101000a031916815260200191505b50935050505060405180910390a25050565b60206040519081016040526000815290565b828054600181600116156101000203166002900490600052602060002090601f016020900481019282601f1061077857805160ff19168380011785556107a5565b828001600101855582156107a5579182015b828111156107a557825182559160200191906001019061078a565b506102ab9291506107da565b8154818355818115116107d5576000838152602090206107d59181019083016107f7565b505050565b6107f491905b808211156102ab57600081556001016107e0565b90565b6107f491905b808211156102ab576000610811828261081a565b506001016107fd565b50805460018160011615610100020316600290046000825580601f10610840575061085e565b601f01602090049060005260206000209081019061085e91906107da565b505600a165627a7a72305820332b6b3127bdba9aea48f499d8ab238d3585dcae0c5ab23d32a8d8f99edf7eb10029",
  "source": "pragma solidity ^0.4.4;\n\ncontract GMToken \n{\n\n    struct GM \n    {\n        string name;\n        uint id;\n        bool isValue;\n    }\n\n    event GMAdded(\n        address indexed _from,\n        uint  _id,\n        string _name\n    );\n\n    mapping (address => GM) GMs; \n\n    function newGM(string name, uint id) public\n    {\n        GMs[msg.sender] = GM(name, id, true);\n        GMAdded(msg.sender, id, name);\n    }\n\n    function deleteMyself() public\n    {\n        GMs[msg.sender] = GM(\"\", 0, false);\n    }\n\n  modifier onlyIfValid()\n    {\n        require(hasToken());\n        _;\n    }\n\n    function hasToken() public view returns (bool) \n    {\n        GM storage gm = GMs[msg.sender];\n        return gm.isValue;\n    }\n\n    function getName() public view onlyIfValid() returns (string) \n    {\n        GM storage gm = GMs[msg.sender];\n        return gm.name;\n    }\n\n    function getID() public view onlyIfValid() returns (uint)\n    {\n        GM storage gm = GMs[msg.sender];\n        require(gm.id != 0);\n        return gm.id;\n    }\n\n    function getIsValue() public view onlyIfValid() returns (bool)\n    {\n        GM storage gm = GMs[msg.sender];\n        require(gm.id != 0);\n        return gm.isValue;\n    }\n\n\n    // Start Chronicle section\n\n\n    // TODO: This is max path length, update when we figure out what our real path limit is.\n    mapping (address => bytes[]) chronicles; \n\n    function getNumChronicles(address player) public view returns(uint)\n    {\n        return chronicles[player].length;\n    }\n\n    function getChronicleForPlayerAt(address player, uint chronicleNumber) public view returns(bytes)\n    {\n        require(chronicleNumber < getNumChronicles(player));\n        return chronicles[player][chronicleNumber];\n    }\n\n    function addChronicle(bytes storageLocation, address playerAddress) public onlyIfValid()\n    {\n        chronicles[playerAddress].push(storageLocation);\n    }\n}\n",
  "sourcePath": "/home/adisney/src/dndapp/contracts/GMToken.sol",
  "schemaVersion": "1.0.0",
  "updatedAt": "2017-10-19T02:56:46.066Z"
}