{
  "contractName": "GMToken",
  "abi": [
    {
      "constant": false,
      "inputs": [],
      "name": "hasToken",
      "outputs": [
        {
          "name": "",
          "type": "bool"
        }
      ],
      "payable": false,
      "stateMutability": "nonpayable",
      "type": "function"
    },
    {
      "constant": false,
      "inputs": [
        {
          "name": "name",
          "type": "string"
        },
        {
          "name": "id",
          "type": "int32"
        }
      ],
      "name": "getName",
      "outputs": [
        {
          "name": "",
          "type": "string"
        }
      ],
      "payable": false,
      "stateMutability": "nonpayable",
      "type": "function"
    },
    {
      "constant": false,
      "inputs": [],
      "name": "getIsValue",
      "outputs": [
        {
          "name": "",
          "type": "bool"
        }
      ],
      "payable": false,
      "stateMutability": "nonpayable",
      "type": "function"
    },
    {
      "constant": false,
      "inputs": [],
      "name": "deleteMyself",
      "outputs": [
        {
          "name": "",
          "type": "uint256"
        }
      ],
      "payable": false,
      "stateMutability": "nonpayable",
      "type": "function"
    },
    {
      "constant": false,
      "inputs": [
        {
          "name": "name",
          "type": "string"
        },
        {
          "name": "id",
          "type": "uint256"
        }
      ],
      "name": "getID",
      "outputs": [
        {
          "name": "",
          "type": "uint256"
        }
      ],
      "payable": false,
      "stateMutability": "nonpayable",
      "type": "function"
    },
    {
      "constant": false,
      "inputs": [
        {
          "name": "name",
          "type": "string"
        },
        {
          "name": "id",
          "type": "uint256"
        }
      ],
      "name": "newGM",
      "outputs": [
        {
          "name": "",
          "type": "uint256"
        }
      ],
      "payable": false,
      "stateMutability": "nonpayable",
      "type": "function"
    }
  ],
  "bytecode": "0x6060604052341561000f57600080fd5b6104e98061001e6000396000f300606060405236156100755763ffffffff7c0100000000000000000000000000000000000000000000000000000000600035041663122c51ab811461007a57806317d7de7c146100a15780633c3c069f1461012b5780635b566c361461013e578063ab9dbd0714610153578063ccdab66b14610178575b600080fd5b341561008557600080fd5b61008d6101cb565b604051901515815260200160405180910390f35b34156100ac57600080fd5b6100b46101f1565b60405160208082528190810183818151815260200191508051906020019080838360005b838110156100f05780820151838201526020016100d8565b50505050905090810190601f16801561011d5780820380516001836020036101000a031916815260200191505b509250505060405180910390f35b341561013657600080fd5b61008d6102c4565b341561014957600080fd5b6101516102f8565b005b341561015e57600080fd5b610166610374565b60405190815260200160405180910390f35b341561018357600080fd5b61016660046024813581810190830135806020601f8201819004810201604051908101604052818152929190602084018383808284375094965050933593506103a592505050565b600160a060020a0332166000908152602081905260409020600281015460ff16905b5090565b6101f961041a565b600160a060020a03321660009081526020819052604090206001810154151561022157600080fd5b806000018054600181600116156101000203166002900480601f0160208091040260200160405190810160405280929190818152602001828054600181600116156101000203166002900480156102b95780601f1061028e576101008083540402835291602001916102b9565b820191906000526020600020905b81548152906001019060200180831161029c57829003601f168201915b505050505091505090565b600160a060020a0332166000908152602081905260408120600181015415156102ec57600080fd5b6002015460ff16919050565b6060604051908101604052806020604051908101604090815260008083529183526020808401839052928101829052600160a060020a0332168252918190522081518190805161034c92916020019061042c565b50602082015181600101556040820151600291909101805460ff191691151591909117905550565b600160a060020a03321660009081526020819052604081206001810154151561039c57600080fd5b60010154919050565b6000606060405190810160409081528482526020808301859052600182840152600160a060020a033216600090815290819052208151819080516103ed92916020019061042c565b50602082015181600101556040820151600291909101805460ff1916911515919091179055509092915050565b60206040519081016040526000815290565b828054600181600116156101000203166002900490600052602060002090601f016020900481019282601f1061046d57805160ff191683800117855561049a565b8280016001018555821561049a579182015b8281111561049a57825182559160200191906001019061047f565b506101ed926104ba9250905b808211156101ed57600081556001016104a6565b905600a165627a7a72305820c9e89b00ee729a0b933216d161f9b29e0e7b9059ef6b2a224cb82eb420f897ae0029",
  "source": "pragma solidity ^0.4.4;\n\ncontract GMToken \n{\n\n    struct GM \n    {\n        string name;\n        uint id;\n        bool isValue;\n    }\n\n    mapping (address => GM) GMs; \n\n    function newGM(string name, uint id) public returns(uint) \n    {\n        GMs[tx.origin] = GM(name, id, true);\n        return id;\n    }\n\n    function deleteMyself() public\n    {\n        GMs[tx.origin] = GM(\"\", 0, false);\n    }\n\n    function hasToken() public returns (bool) \n    {\n        GM storage gm = GMs[tx.origin];\n        return gm.isValue;\n    }\n\n    function getName() public returns (string) \n    {\n        GM storage gm = GMs[tx.origin];\n        require(gm.id != 0);\n        return gm.name;\n    }\n\n    function getID() public returns (uint)\n    {\n        GM storage gm = GMs[tx.origin];\n        require(gm.id != 0);\n        return gm.id;\n    }\n\n    function getIsValue() public returns (bool)\n    {\n        GM storage gm = GMs[tx.origin];\n        require(gm.id != 0);\n        return gm.isValue;\n    }\n}\n",
  "sourcePath": "/home/adisney/src/chronicleToken/contracts/GMToken.sol",
  "schemaVersion": "1.0.0",
  "updatedAt": "2017-10-14T15:56:08.570Z"
}